{
  "contractName": "Election",
  "abi": [
    {
      "inputs": [],
      "stateMutability": "nonpayable",
      "type": "constructor"
    },
    {
      "anonymous": false,
      "inputs": [
        {
          "indexed": true,
          "internalType": "uint256",
          "name": "_candidateId",
          "type": "uint256"
        }
      ],
      "name": "votedEvent",
      "type": "event"
    },
    {
      "inputs": [
        {
          "internalType": "uint256",
          "name": "",
          "type": "uint256"
        }
      ],
      "name": "candidates",
      "outputs": [
        {
          "internalType": "uint256",
          "name": "id",
          "type": "uint256"
        },
        {
          "internalType": "string",
          "name": "name",
          "type": "string"
        },
        {
          "internalType": "uint256",
          "name": "voteCount",
          "type": "uint256"
        },
        {
          "internalType": "string",
          "name": "candidatename",
          "type": "string"
        },
        {
          "internalType": "string",
          "name": "age",
          "type": "string"
        },
        {
          "internalType": "string",
          "name": "height",
          "type": "string"
        },
        {
          "internalType": "string",
          "name": "status",
          "type": "string"
        },
        {
          "internalType": "string",
          "name": "description",
          "type": "string"
        },
        {
          "internalType": "string",
          "name": "phone",
          "type": "string"
        }
      ],
      "stateMutability": "view",
      "type": "function",
      "constant": true
    },
    {
      "inputs": [],
      "name": "candidatesCount",
      "outputs": [
        {
          "internalType": "uint256",
          "name": "",
          "type": "uint256"
        }
      ],
      "stateMutability": "view",
      "type": "function",
      "constant": true
    },
    {
      "inputs": [
        {
          "internalType": "address",
          "name": "",
          "type": "address"
        }
      ],
      "name": "voterage",
      "outputs": [
        {
          "internalType": "string",
          "name": "",
          "type": "string"
        }
      ],
      "stateMutability": "view",
      "type": "function",
      "constant": true
    },
    {
      "inputs": [
        {
          "internalType": "address",
          "name": "",
          "type": "address"
        }
      ],
      "name": "voterdescription",
      "outputs": [
        {
          "internalType": "string",
          "name": "",
          "type": "string"
        }
      ],
      "stateMutability": "view",
      "type": "function",
      "constant": true
    },
    {
      "inputs": [
        {
          "internalType": "address",
          "name": "",
          "type": "address"
        }
      ],
      "name": "voterheight",
      "outputs": [
        {
          "internalType": "string",
          "name": "",
          "type": "string"
        }
      ],
      "stateMutability": "view",
      "type": "function",
      "constant": true
    },
    {
      "inputs": [
        {
          "internalType": "address",
          "name": "",
          "type": "address"
        }
      ],
      "name": "votername",
      "outputs": [
        {
          "internalType": "string",
          "name": "",
          "type": "string"
        }
      ],
      "stateMutability": "view",
      "type": "function",
      "constant": true
    },
    {
      "inputs": [
        {
          "internalType": "address",
          "name": "",
          "type": "address"
        }
      ],
      "name": "voterphone",
      "outputs": [
        {
          "internalType": "string",
          "name": "",
          "type": "string"
        }
      ],
      "stateMutability": "view",
      "type": "function",
      "constant": true
    },
    {
      "inputs": [
        {
          "internalType": "address",
          "name": "",
          "type": "address"
        }
      ],
      "name": "voters",
      "outputs": [
        {
          "internalType": "bool",
          "name": "",
          "type": "bool"
        }
      ],
      "stateMutability": "view",
      "type": "function",
      "constant": true
    },
    {
      "inputs": [
        {
          "internalType": "address",
          "name": "",
          "type": "address"
        }
      ],
      "name": "voterstatus",
      "outputs": [
        {
          "internalType": "string",
          "name": "",
          "type": "string"
        }
      ],
      "stateMutability": "view",
      "type": "function",
      "constant": true
    },
    {
      "inputs": [
        {
          "internalType": "uint256",
          "name": "_candidateId",
          "type": "uint256"
        },
        {
          "internalType": "string",
          "name": "_candidatename",
          "type": "string"
        },
        {
          "internalType": "string",
          "name": "_age",
          "type": "string"
        },
        {
          "internalType": "string",
          "name": "_height",
          "type": "string"
        },
        {
          "internalType": "string",
          "name": "_status",
          "type": "string"
        },
        {
          "internalType": "string",
          "name": "_description",
          "type": "string"
        },
        {
          "internalType": "string",
          "name": "_phone",
          "type": "string"
        }
      ],
      "name": "vote",
      "outputs": [],
      "stateMutability": "nonpayable",
      "type": "function"
    },
    {
      "inputs": [
        {
          "internalType": "uint256",
          "name": "_candidateId",
          "type": "uint256"
        },
        {
          "internalType": "string",
          "name": "_candidatename",
          "type": "string"
        },
        {
          "internalType": "string",
          "name": "_output",
          "type": "string"
        },
        {
          "internalType": "uint256",
          "name": "_votecounts",
          "type": "uint256"
        }
      ],
      "name": "admin",
      "outputs": [],
      "stateMutability": "nonpayable",
      "type": "function"
    }
  ],
  "bytecode": "0x60806040523480156200001157600080fd5b50620000586040518060400160405280600581526020017f4448414b410000000000000000000000000000000000000000000000000000008152506200024860201b60201c565b6200009e6040518060400160405280600a81526020017f434849545441474f4e47000000000000000000000000000000000000000000008152506200024860201b60201c565b620000e46040518060400160405280600781526020017f4241524953414c000000000000000000000000000000000000000000000000008152506200024860201b60201c565b6200012a6040518060400160405280600681526020017f4b48554c4e4100000000000000000000000000000000000000000000000000008152506200024860201b60201c565b620001706040518060400160405280600881526020017f52414a53484148490000000000000000000000000000000000000000000000008152506200024860201b60201c565b620001b66040518060400160405280600681526020017f53594c48455400000000000000000000000000000000000000000000000000008152506200024860201b60201c565b620001fc6040518060400160405280600781526020017f524f4e47505552000000000000000000000000000000000000000000000000008152506200024860201b60201c565b620002426040518060400160405280600a81526020017f4d594d454e53494e4748000000000000000000000000000000000000000000008152506200024860201b60201c565b620007b4565b600860008154809291906200025d9062000410565b919050555060405180610120016040528060085481526020018281526020016000815260200160405180602001604052806000815250815260200160405180602001604052806000815250815260200160405180602001604052806000815250815260200160405180602001604052806000815250815260200160405180602001604052806000815250815260200160405180602001604052806000815250815250600160006008548152602001908152602001600020600082015181600001556020820151816001019081620003359190620006cd565b50604082015181600201556060820151816003019081620003579190620006cd565b5060808201518160040190816200036f9190620006cd565b5060a0820151816005019081620003879190620006cd565b5060c08201518160060190816200039f9190620006cd565b5060e0820151816007019081620003b79190620006cd565b50610100820151816008019081620003d09190620006cd565b5090505050565b7f4e487b7100000000000000000000000000000000000000000000000000000000600052601160045260246000fd5b6000819050919050565b60006200041d8262000406565b91507fffffffffffffffffffffffffffffffffffffffffffffffffffffffffffffffff8203620004525762000451620003d7565b5b600182019050919050565b600081519050919050565b7f4e487b7100000000000000000000000000000000000000000000000000000000600052604160045260246000fd5b7f4e487b7100000000000000000000000000000000000000000000000000000000600052602260045260246000fd5b60006002820490506001821680620004df57607f821691505b602082108103620004f557620004f462000497565b5b50919050565b60008190508160005260206000209050919050565b60006020601f8301049050919050565b600082821b905092915050565b6000600883026200055f7fffffffffffffffffffffffffffffffffffffffffffffffffffffffffffffffff8262000520565b6200056b868362000520565b95508019841693508086168417925050509392505050565b6000819050919050565b6000620005ae620005a8620005a28462000406565b62000583565b62000406565b9050919050565b6000819050919050565b620005ca836200058d565b620005e2620005d982620005b5565b8484546200052d565b825550505050565b600090565b620005f9620005ea565b62000606818484620005bf565b505050565b5b818110156200062e5762000622600082620005ef565b6001810190506200060c565b5050565b601f8211156200067d576200064781620004fb565b620006528462000510565b8101602085101562000662578190505b6200067a620006718562000510565b8301826200060b565b50505b505050565b600082821c905092915050565b6000620006a26000198460080262000682565b1980831691505092915050565b6000620006bd83836200068f565b9150826002028217905092915050565b620006d8826200045d565b67ffffffffffffffff811115620006f457620006f362000468565b5b620007008254620004c6565b6200070d82828562000632565b600060209050601f83116001811462000745576000841562000730578287015190505b6200073c8582620006af565b865550620007ac565b601f1984166200075586620004fb565b60005b828110156200077f5784890151825560018201915060208501945060208101905062000758565b868310156200079f57848901516200079b601f8916826200068f565b8355505b6001600288020188555050505b505050505050565b611a7580620007c46000396000f3fe608060405234801561001057600080fd5b50600436106100a95760003560e01c80633d962e93116100715780633d962e93146101945780636f5b2d54146101c4578063a2628b1a146101f4578063a3ec138d14610210578063abeba44514610240578063ad16a72214610270576100a9565b8063089fc986146100ae5780631f4fca2c146100de57806324a3484a1461010e5780632d35a8a21461013e5780633477ee2e1461015c575b600080fd5b6100c860048036038101906100c39190610f6e565b61028c565b6040516100d5919061102b565b60405180910390f35b6100f860048036038101906100f39190610f6e565b61032c565b604051610105919061102b565b60405180910390f35b61012860048036038101906101239190610f6e565b6103cc565b604051610135919061102b565b60405180910390f35b61014661046c565b6040516101539190611066565b60405180910390f35b610176600480360381019061017191906110ad565b610472565b60405161018b999897969594939291906110da565b60405180910390f35b6101ae60048036038101906101a99190610f6e565b610878565b6040516101bb919061102b565b60405180910390f35b6101de60048036038101906101d99190610f6e565b610918565b6040516101eb919061102b565b60405180910390f35b61020e600480360381019061020991906112cd565b6109b8565b005b61022a60048036038101906102259190610f6e565b610cbe565b6040516102379190611432565b60405180910390f35b61025a60048036038101906102559190610f6e565b610cde565b604051610267919061102b565b60405180910390f35b61028a6004803603810190610285919061144d565b610d7e565b005b600660205280600052604060002060009150905080546102ab9061151b565b80601f01602080910402602001604051908101604052809291908181526020018280546102d79061151b565b80156103245780601f106102f957610100808354040283529160200191610324565b820191906000526020600020905b81548152906001019060200180831161030757829003601f168201915b505050505081565b6002602052806000526040600020600091509050805461034b9061151b565b80601f01602080910402602001604051908101604052809291908181526020018280546103779061151b565b80156103c45780601f10610399576101008083540402835291602001916103c4565b820191906000526020600020905b8154815290600101906020018083116103a757829003601f168201915b505050505081565b600560205280600052604060002060009150905080546103eb9061151b565b80601f01602080910402602001604051908101604052809291908181526020018280546104179061151b565b80156104645780601f1061043957610100808354040283529160200191610464565b820191906000526020600020905b81548152906001019060200180831161044757829003601f168201915b505050505081565b60085481565b600160205280600052604060002060009150905080600001549080600101805461049b9061151b565b80601f01602080910402602001604051908101604052809291908181526020018280546104c79061151b565b80156105145780601f106104e957610100808354040283529160200191610514565b820191906000526020600020905b8154815290600101906020018083116104f757829003601f168201915b50505050509080600201549080600301805461052f9061151b565b80601f016020809104026020016040519081016040528092919081815260200182805461055b9061151b565b80156105a85780601f1061057d576101008083540402835291602001916105a8565b820191906000526020600020905b81548152906001019060200180831161058b57829003601f168201915b5050505050908060040180546105bd9061151b565b80601f01602080910402602001604051908101604052809291908181526020018280546105e99061151b565b80156106365780601f1061060b57610100808354040283529160200191610636565b820191906000526020600020905b81548152906001019060200180831161061957829003601f168201915b50505050509080600501805461064b9061151b565b80601f01602080910402602001604051908101604052809291908181526020018280546106779061151b565b80156106c45780601f10610699576101008083540402835291602001916106c4565b820191906000526020600020905b8154815290600101906020018083116106a757829003601f168201915b5050505050908060060180546106d99061151b565b80601f01602080910402602001604051908101604052809291908181526020018280546107059061151b565b80156107525780601f1061072757610100808354040283529160200191610752565b820191906000526020600020905b81548152906001019060200180831161073557829003601f168201915b5050505050908060070180546107679061151b565b80601f01602080910402602001604051908101604052809291908181526020018280546107939061151b565b80156107e05780601f106107b5576101008083540402835291602001916107e0565b820191906000526020600020905b8154815290600101906020018083116107c357829003601f168201915b5050505050908060080180546107f59061151b565b80601f01602080910402602001604051908101604052809291908181526020018280546108219061151b565b801561086e5780601f106108435761010080835404028352916020019161086e565b820191906000526020600020905b81548152906001019060200180831161085157829003601f168201915b5050505050905089565b600460205280600052604060002060009150905080546108979061151b565b80601f01602080910402602001604051908101604052809291908181526020018280546108c39061151b565b80156109105780601f106108e557610100808354040283529160200191610910565b820191906000526020600020905b8154815290600101906020018083116108f357829003601f168201915b505050505081565b600760205280600052604060002060009150905080546109379061151b565b80601f01602080910402602001604051908101604052809291908181526020018280546109639061151b565b80156109b05780601f10610985576101008083540402835291602001916109b0565b820191906000526020600020905b81548152906001019060200180831161099357829003601f168201915b505050505081565b6000871180156109ca57506008548711155b6109d357600080fd5b60016000803373ffffffffffffffffffffffffffffffffffffffff1673ffffffffffffffffffffffffffffffffffffffff16815260200190815260200160002060006101000a81548160ff02191690831515021790555085600260003373ffffffffffffffffffffffffffffffffffffffff1673ffffffffffffffffffffffffffffffffffffffff1681526020019081526020016000209081610a7691906116f8565b5084600360003373ffffffffffffffffffffffffffffffffffffffff1673ffffffffffffffffffffffffffffffffffffffff1681526020019081526020016000209081610ac391906116f8565b5083600460003373ffffffffffffffffffffffffffffffffffffffff1673ffffffffffffffffffffffffffffffffffffffff1681526020019081526020016000209081610b1091906116f8565b5082600560003373ffffffffffffffffffffffffffffffffffffffff1673ffffffffffffffffffffffffffffffffffffffff1681526020019081526020016000209081610b5d91906116f8565b5081600660003373ffffffffffffffffffffffffffffffffffffffff1673ffffffffffffffffffffffffffffffffffffffff1681526020019081526020016000209081610baa91906116f8565b5080600760003373ffffffffffffffffffffffffffffffffffffffff1673ffffffffffffffffffffffffffffffffffffffff1681526020019081526020016000209081610bf791906116f8565b50600160008881526020019081526020016000206002016000815480929190610c1f906117f9565b919050555060016000888152602001908152602001600020600301868686868686604051602001610c569796959493929190611998565b604051602081830303815290604052600160008981526020019081526020016000206003019081610c8791906116f8565b50867ffff3c900d938d21d0990d786e819f29b8d05c1ef587b462b939609625b684b1660405160405180910390a250505050505050565b60006020528060005260406000206000915054906101000a900460ff1681565b60036020528060005260406000206000915090508054610cfd9061151b565b80601f0160208091040260200160405190810160405280929190818152602001828054610d299061151b565b8015610d765780601f10610d4b57610100808354040283529160200191610d76565b820191906000526020600020905b815481529060010190602001808311610d5957829003601f168201915b505050505081565b600084118015610d9057506008548411155b610d9957600080fd5b60016000803373ffffffffffffffffffffffffffffffffffffffff1673ffffffffffffffffffffffffffffffffffffffff16815260200190815260200160002060006101000a81548160ff02191690831515021790555082600260003373ffffffffffffffffffffffffffffffffffffffff1673ffffffffffffffffffffffffffffffffffffffff1681526020019081526020016000209081610e3c91906116f8565b5081600360003373ffffffffffffffffffffffffffffffffffffffff1673ffffffffffffffffffffffffffffffffffffffff1681526020019081526020016000209081610e8991906116f8565b5080600160008681526020019081526020016000206002018190555081600160008681526020019081526020016000206003019081610ec891906116f8565b50837ffff3c900d938d21d0990d786e819f29b8d05c1ef587b462b939609625b684b1660405160405180910390a250505050565b6000604051905090565b600080fd5b600080fd5b600073ffffffffffffffffffffffffffffffffffffffff82169050919050565b6000610f3b82610f10565b9050919050565b610f4b81610f30565b8114610f5657600080fd5b50565b600081359050610f6881610f42565b92915050565b600060208284031215610f8457610f83610f06565b5b6000610f9284828501610f59565b91505092915050565b600081519050919050565b600082825260208201905092915050565b60005b83811015610fd5578082015181840152602081019050610fba565b60008484015250505050565b6000601f19601f8301169050919050565b6000610ffd82610f9b565b6110078185610fa6565b9350611017818560208601610fb7565b61102081610fe1565b840191505092915050565b600060208201905081810360008301526110458184610ff2565b905092915050565b6000819050919050565b6110608161104d565b82525050565b600060208201905061107b6000830184611057565b92915050565b61108a8161104d565b811461109557600080fd5b50565b6000813590506110a781611081565b92915050565b6000602082840312156110c3576110c2610f06565b5b60006110d184828501611098565b91505092915050565b6000610120820190506110f0600083018c611057565b8181036020830152611102818b610ff2565b9050611111604083018a611057565b81810360608301526111238189610ff2565b905081810360808301526111378188610ff2565b905081810360a083015261114b8187610ff2565b905081810360c083015261115f8186610ff2565b905081810360e08301526111738185610ff2565b90508181036101008301526111888184610ff2565b90509a9950505050505050505050565b600080fd5b600080fd5b7f4e487b7100000000000000000000000000000000000000000000000000000000600052604160045260246000fd5b6111da82610fe1565b810181811067ffffffffffffffff821117156111f9576111f86111a2565b5b80604052505050565b600061120c610efc565b905061121882826111d1565b919050565b600067ffffffffffffffff821115611238576112376111a2565b5b61124182610fe1565b9050602081019050919050565b82818337600083830152505050565b600061127061126b8461121d565b611202565b90508281526020810184848401111561128c5761128b61119d565b5b61129784828561124e565b509392505050565b600082601f8301126112b4576112b3611198565b5b81356112c484826020860161125d565b91505092915050565b600080600080600080600060e0888a0312156112ec576112eb610f06565b5b60006112fa8a828b01611098565b975050602088013567ffffffffffffffff81111561131b5761131a610f0b565b5b6113278a828b0161129f565b965050604088013567ffffffffffffffff81111561134857611347610f0b565b5b6113548a828b0161129f565b955050606088013567ffffffffffffffff81111561137557611374610f0b565b5b6113818a828b0161129f565b945050608088013567ffffffffffffffff8111156113a2576113a1610f0b565b5b6113ae8a828b0161129f565b93505060a088013567ffffffffffffffff8111156113cf576113ce610f0b565b5b6113db8a828b0161129f565b92505060c088013567ffffffffffffffff8111156113fc576113fb610f0b565b5b6114088a828b0161129f565b91505092959891949750929550565b60008115159050919050565b61142c81611417565b82525050565b60006020820190506114476000830184611423565b92915050565b6000806000806080858703121561146757611466610f06565b5b600061147587828801611098565b945050602085013567ffffffffffffffff81111561149657611495610f0b565b5b6114a28782880161129f565b935050604085013567ffffffffffffffff8111156114c3576114c2610f0b565b5b6114cf8782880161129f565b92505060606114e087828801611098565b91505092959194509250565b7f4e487b7100000000000000000000000000000000000000000000000000000000600052602260045260246000fd5b6000600282049050600182168061153357607f821691505b602082108103611546576115456114ec565b5b50919050565b60008190508160005260206000209050919050565b60006020601f8301049050919050565b600082821b905092915050565b6000600883026115ae7fffffffffffffffffffffffffffffffffffffffffffffffffffffffffffffffff82611571565b6115b88683611571565b95508019841693508086168417925050509392505050565b6000819050919050565b60006115f56115f06115eb8461104d565b6115d0565b61104d565b9050919050565b6000819050919050565b61160f836115da565b61162361161b826115fc565b84845461157e565b825550505050565b600090565b61163861162b565b611643818484611606565b505050565b5b818110156116675761165c600082611630565b600181019050611649565b5050565b601f8211156116ac5761167d8161154c565b61168684611561565b81016020851015611695578190505b6116a96116a185611561565b830182611648565b50505b505050565b600082821c905092915050565b60006116cf600019846008026116b1565b1980831691505092915050565b60006116e883836116be565b9150826002028217905092915050565b61170182610f9b565b67ffffffffffffffff81111561171a576117196111a2565b5b611724825461151b565b61172f82828561166b565b600060209050601f8311600181146117625760008415611750578287015190505b61175a85826116dc565b8655506117c2565b601f1984166117708661154c565b60005b8281101561179857848901518255600182019150602085019450602081019050611773565b868310156117b557848901516117b1601f8916826116be565b8355505b6001600288020188555050505b505050505050565b7f4e487b7100000000000000000000000000000000000000000000000000000000600052601160045260246000fd5b60006118048261104d565b91507fffffffffffffffffffffffffffffffffffffffffffffffffffffffffffffffff8203611836576118356117ca565b5b600182019050919050565b600081905092915050565b600081546118598161151b565b6118638186611841565b9450600182166000811461187e5760018114611893576118c6565b60ff19831686528115158202860193506118c6565b61189c8561154c565b60005b838110156118be5781548189015260018201915060208101905061189f565b838801955050505b50505092915050565b60006118da82610f9b565b6118e48185611841565b93506118f4818560208601610fb7565b80840191505092915050565b7f2f00000000000000000000000000000000000000000000000000000000000000600082015250565b6000611936600183611841565b915061194182611900565b600182019050919050565b7f2626000000000000000000000000000000000000000000000000000000000000600082015250565b6000611982600283611841565b915061198d8261194c565b600282019050919050565b60006119a4828a61184c565b91506119b082896118cf565b91506119bb82611929565b91506119c782886118cf565b91506119d282611929565b91506119de82876118cf565b91506119e982611929565b91506119f582866118cf565b9150611a0082611929565b9150611a0c82856118cf565b9150611a1782611929565b9150611a2382846118cf565b9150611a2e82611975565b91508190509897505050505050505056fea2646970667358221220a6843c3c3f06eb877beed23a8b7a86b6cefb4e51de039f8902e6b36b8ed9bfa864736f6c63430008100033",
  "immutableReferences": {},
  "source": "// SPDX-License-Identifier: GPL-3.0\npragma solidity >=0.7.0 <0.9.0;\n\ncontract Election {\n\n\n   // model a candidate\n   event votedEvent( uint indexed _candidateId );\n   struct Candidate {\n       uint id;\n       string name;\n       uint voteCount;\n       string candidatename;\n       string age;\n       string height;\n       string status;\n       string description;\n       string phone;\n   }\n   // Store accounts that have voted\n   mapping( address => bool ) public voters;\n\n\n   // Read/write candidates\n   mapping( uint => Candidate ) public candidates;\n\n   mapping(address => string) public votername;\n   mapping(address => string) public voterage;\n   mapping(address => string) public voterheight;\n   mapping(address => string) public voterstatus;\n   mapping(address => string) public voterdescription;\n   mapping(address => string) public voterphone;\n \n   \n\n   // store candidates count\n   uint public candidatesCount;\n\n\n   // Constructor\n   constructor() {\n       addCandidate( \"DHAKA\" );\n       addCandidate( \"CHITTAGONG\" );\n       addCandidate( \"BARISAL\" );\n       addCandidate( \"KHULNA\" );\n       addCandidate( \"RAJSHAHI\" );\n       addCandidate( \"SYLHET\" );\n       addCandidate( \"RONGPUR\" );\n       addCandidate( \"MYMENSINGH\" );\n   }\n\n\n   // adding candidates\n   function addCandidate( string memory _name ) private {\n       candidatesCount++;\n       candidates[ candidatesCount ] = Candidate( candidatesCount, _name, 0 , \"\",\"\",\"\",\"\",\"\",\"\");\n   }\n\n\n   // cast vote\n   function vote( uint _candidateId, string memory _candidatename,string memory _age,string memory _height,string memory _status,string memory _description,string memory _phone) public {\n       // require that the current voter haven't voted before\n       //require( !voters[ msg.sender ]);\n\n\n       // candidate should be valid\n       require( _candidateId > 0 && _candidateId <= candidatesCount );\n       \n       //string memory candidatename = candidates[_candidateId].candidatename;\n\n\n       // record voters vote\n       voters[ msg.sender ] = true;\n       votername[ msg.sender ] =_candidatename;\n       voterage[ msg.sender ] =_age;\n       voterheight[ msg.sender ] =_height;\n       voterstatus[ msg.sender ] =_status;\n       voterdescription[ msg.sender ] =_description;\n       voterphone[ msg.sender ] =_phone;\n\n       \n\n\n       // update candidates vote count\n       candidates[ _candidateId ].voteCount++;\n       candidates[_candidateId].candidatename = string(abi.encodePacked(candidates[_candidateId].candidatename,\n       _candidatename,\"/\",_age,\"/\",_height,\"/\",_status,\"/\",_description,\"/\",_phone,\"&&\"));\n\n             /// emit the event\n\temit votedEvent( _candidateId ); }\n\t\n\t\n\t\n\t\n\t\nfunction admin( uint _candidateId, string memory _candidatename,string memory _output,uint  _votecounts) public {\n       // require that the current voter haven't voted before\n       //require( !voters[ msg.sender ]);\n\n\n       // candidate should be valid\n       require( _candidateId > 0 && _candidateId <= candidatesCount );\n       \n       //string memory candidatename = candidates[_candidateId].candidatename;\n\n\n       // record voters vote\n       voters[ msg.sender ] = true;\n       votername[ msg.sender ] =_candidatename;\n       voterage[ msg.sender ] =_output;\n     \n\n       \n\n       // update candidates vote count\n       candidates[ _candidateId ].voteCount=_votecounts;\n       candidates[_candidateId].candidatename = string(_output);\n\n             /// emit the event\n\temit votedEvent( _candidateId ); }\n\t\n\t\n\t\n              \n}\n",
  "sourcePath": "/home/farhan/explorer-master/election/contracts/Election.sol",
  "compiler": {
    "name": "solc",
    "version": "0.8.16+commit.07a7930e.Emscripten.clang"
  },
  "schemaVersion": "3.4.16",
  "updatedAt": "2023-12-26T18:32:43.318Z",
  "networkType": "ethereum",
  "devdoc": {
    "kind": "dev",
    "methods": {},
    "version": 1
  },
  "userdoc": {
    "kind": "user",
    "methods": {},
    "version": 1
  }
}